:1000000005C200001FC200001DC200001BC200008C
:1000100019C2000017C2000015C2000013C2000080
:1000200011C200000FC200000DC200000C941B0999
:1000300009C2000007C2000005C2000003C20000A0
:1000400001C20000FFC10000FDC10000FBC10000B3
:10005000F9C10000F7C10000F5C1000006C50000AD
:10006000F1C10000EFC10000EDC10000EBC10000D4
:10007000E9C10000E7C10000E5C10000E3C10000E4
:10008000E1C10000DFC10000DDC10000DBC10000F4
:10009000D9C10000D7C1000005010905A101150063
:1000A0002501350045017501951005091901291033
:1000B000810205012507463B017504950165140978
:1000C00039814265009501810126FF0046FF000944
:1000D000300931093209357508950481020600FF9F
:1000E0000920950181020A212695089102C012017A
:1000F0000002000000400D0F92000001010200010B
:100100000902290001010080FA090400000203002D
:1001100000000921110100012256000705020340D9
:10012000000507058103400005040309041C03487A
:10013000004F0052004900200043004F002E002CC9
:10014000004C00540044002E000000240350004FD7
:10015000004B004B0045004E00200043004F004E76
:1001600000540052004F004C004C0045005200006B
:10017000001032000A020010C80012020010320003
:100180000A020010320010320012020010140001A6
:100190000500100200030200100500030200100514
:1001A000000302001005000A0500103C000A0200CE
:1001B000101E000A0200101E001014000A05001094
:1001C00014000805001014001205001014000A05A0
:1001D000001014000A05001014000A050010140095
:1001E0000A05001014000A05001014000A0500108A
:1001F00014000A05001014000A05001014000A0576
:10020000001014000A05001014000B050010460031
:100210000A02001032000B02001032000B02001024
:1002200032000B02001032000B02001032000B02F1
:10023000001032000A02001032000A020010AF0063
:100240001205001014000202001008000102000252
:1002500002000A0200102D00010200140200010237
:100260000014020001020014020001020014020046
:100270000102001402000102001402000102001435
:1002800002000102001002000A0200100F00010229
:10029000001402000119001402000102000A020009
:1002A000100A000102001402001002000A020010ED
:1002B0000A000302001602000002000302001602F8
:1002C000000302001002000A0200101400120500D0
:1002D0001023001205001023000B02001028000A52
:1002E00002001064001005000A02001014000A0247
:1002F000001014000A02001014000B020010140079
:100300000B02001014000B02001014000B0200106E
:1003100014000B02001014000B02001014000B025A
:10032000001014000B02001014000B020010140047
:100330000B02001014000B02001014000B0200103E
:1003400014000B02001014000B02001014000B022A
:10035000001014000B02001014000B020010140017
:100360000B0200101400120500101400020200100D
:1003700008000102000202000A0200102D00010222
:100380000014020001020014020001020014020025
:100390000102001402000102001402000102001414
:1003A00002000102001402000102001002000A0211
:1003B00000100F00010200140200011900140200D5
:1003C0000102000A0200100A0001020014020010DB
:1003D00002000A0200100A000302001602000002D6
:1003E000000302001602000302001002000A0200CD
:1003F00010140012050010230012050010230063E2
:1004000064696E6F70737578585B000011241FBEAD
:10041000CFEFD2E0DEBFCDBF11E0A0E0B1E0E2E27D
:10042000FEE102C005900D92AA3AB107D9F712E099
:10043000AAEAB1E001C01D92AE30B107E1F71DD4C8
:100440000C940F0FDDCD80E88093BC018093BD013B
:100450008093BE018093BF0188E08093BB01089523
:1004600008950895FB018C3009F470C08D3058F563
:10047000853009F479C0863098F4823009F453C08D
:10048000833038F4882309F471C0813009F097C0B3
:1004900073C0833009F449C0843009F090C062C051
:1004A000883009F44BC0893038F4863009F463C0D1
:1004B000873009F084C05CC08A30D1F1208131815D
:1004C0008B30D0F53FC0843109F476C08531A8F473
:1004D0008F3009F458C0803130F48D30D9F18E302E
:1004E00009F06DC04CC0823109F451C0833108F06D
:1004F0005DC0813109F063C031C0873109F452C059
:10050000883138F4853109F448C0863109F057C084
:1005100046C0893109F44FC0893108F445C08A3199
:1005200009F04DC045C0138208958FEF838308956D
:100530008081918184602EC0226005C0808191817C
:10054000886028C021603183208308958081918153
:10055000806120C08081918180621CC080819181F6
:10056000806318C0138202C08FEF838314820895C2
:100570008FEF838302C013828FEF8483089580817D
:100580009181926007C080819181916003C08081D8
:1005900091819061918380830895158208958FEFF2
:1005A00085830895158202C08FEF85831682089592
:1005B0008FEF858302C015828FEF8683089580E8D0
:1005C000838384838583868388E0828308950F9361
:1005D0001F93CF93DF93FC018B01EA012091E60189
:1005E0003091E7018091EB019091EC0163E070E0C4
:1005F0000E94810B2F5F3F4F3093E7012093E6016C
:1006000021503040281739074CF4DE01EFEAF1E0C1
:1006100088E001900D928150E1F750C01092E701FF
:100620001092E6012091E4013091E5018091E8010A
:100630009091E901281739079CF01092E50110927A
:10064000E40180E88B838C838D838E8388E08A83AA
:10065000AFEAB1E0FE0101900D928150E1F72FC0A9
:100660002F5F3F4F3093E5012093E401215030404C
:10067000C90163E070E00E94810BE80FF91F81EE71
:1006800091E0BF0143E050E00E94930B1093E90119
:100690000093E8018091E2019091E3019093EC01D5
:1006A0008093EB018091E101BE01DCDEAFEAB1E0B5
:1006B000FE0188E001900D928150E1F781E0DF9129
:1006C000CF911F910F910895CF93DF93EC0198E0A4
:1006D000FE01892F11928A95E9F780E88B838C833C
:1006E0008D838E839A838091AB018130C1F08130FC
:1006F00030F0823009F1833009F091C08DC0109242
:10070000E5011092E4018FE790E09093E901809376
:10071000E8018091AD01882369F081E07EC060919D
:100720009A0170919B0181E791E0AE0150DF88232F
:1007300009F075C082E071C08091AC01853009F488
:100740003EC0863070F48230F9F0833020F481307E
:1007500009F065C012C0833021F1843009F05FC018
:1007600027C0873009F43FC0873080F1883009F412
:1007700041C0893009F053C046C060919E0170911C
:100780009F0189EB91E03CC06091A4017091A501AB
:100790008BEC91E0AE011BDF8CEA8B8387E08C83CE
:1007A0003EC06091A6017091A7018DE092E028C043
:1007B0006091A8017091A90185EE92E021C060913D
:1007C0009A0170919B0181E791E006C060919C01C4
:1007D00070919D0186E891E0AE01F9DE8823F9F47D
:1007E0001092AC011CC06091A0017091A1018FEB2F
:1007F00091E006C06091A2017091A30185EC91E0A7
:10080000AE01E5DE0CC0DE01E9EBF1E088E001902D
:100810000D928150E1F703C084E08093AB01DF913A
:10082000CF910895EF92FF920F931F93DF93CF9391
:10083000CDB7DEB763970FB6F894DEBF0FBECDBF5E
:100840007C0100D000D000D0EDB7FEB73196ADB737
:10085000BEB712969C938E93119780E091E093839C
:1008600082838E010C5F1F4F15830483BAD72DB787
:100870003EB72A5F3F4F0FB6F8943EBF0FBE2DBF65
:100880008F5F9F4F11F487E0D3C0C80163E071E030
:1008900040E150E051D7009721F41092AC01D3DD34
:1008A000C9C08C8180538A3008F079C01092BA0197
:1008B0001092B9018DB79EB740970FB6F8949EBFBE
:1008C0000FBE8DBFEDB7FEB73196ADB7BEB712966E
:1008D000FC92EE92119787E091E093838283CE01A0
:1008E000029695838483CE010196978386838AEE50
:1008F00091E0918780878EEA91E09387828788EBE9
:1009000091E09587848787EB91E09787868769D701
:1009100089818093BB014A815B81642F6170CA0128
:10092000969587952DB73EB7205F3F4F0FB6F89449
:100930003EBF0FBE2DBF282F217080FF08C08091C1
:10094000EA018093BC018091AE018093BD01862FA6
:1009500090E030E082239323892B39F08091B80115
:100960008093BE018091B70108C0662341F0809159
:10097000EA018093BE018091AE018093BF0156953C
:100980004795569547958091B9019091BA01482BAA
:10099000592B5093BA014093B90189E049C0609145
:1009A000580170915901C80140E150E0C5D6009747
:1009B00011F481E03DC060915A0170915B01C80162
:1009C00040E150E0B9D6009711F482E031C0609167
:1009D0005C0170915D01C80140E150E0ADD6009727
:1009E00011F483E025C060915E0170915F01C80140
:1009F00040E150E0A1D6009711F485E019C0609164
:100A0000600170916101C80140E150E095D6009706
:100A100011F486E00DC06091620170916301C8011C
:100A200040E150E089D6009711F484E001C088E0ED
:100A30008093AC011092E5011092E4018FE790E001
:100A40009093E9018093E8011092EC011092EB0180
:100A500063960FB6F894DEBF0FBECDBFCF91DF9186
:100A60001F910F91FF90EF9008951F920F920FB674
:100A70000F9211240F931F932F933F934F935F93E4
:100A80006F937F938F939F93AF93BF93EF93FF9356
:100A900080910802909109025DD6082F8091C800CC
:100AA00085FF03C0802F90E097D60D3061F401ECF4
:100AB00011E0C801B7DE1092AA0180E2F80111929C
:100AC0008A95E9F70EC00A3061F08091AA01803260
:100AD00040F4E82FF0E0EF53FE4F00838F5F8093E8
:100AE000AA01FF91EF91BF91AF919F918F917F915B
:100AF0006F915F914F913F912F911F910F910F90A7
:100B00000FBE0F901F901895FF920F931F93DF93C6
:100B1000CF93CDB7DEB728970FB6F894DEBF0FBEE0
:100B2000CDBF8091F1018430B9F582E08093E90076
:100B30008091E80082FF14C08091E80085FF0BC01F
:100B40008E010F5F1F4FC80167E070E040E050E08A
:100B5000FBD18823C1F78091E8008B778093E80070
:100B600081E08093E9008091E80080FF15C08E014C
:100B70000F5F1F4FC801A8DDF02E012F8F2D902F82
:100B800068E070E040E050E031D28823B9F780910E
:100B9000E8008E778093E80028960FB6F894DEBFC1
:100BA0000FBECDBFCF91DF911F910F91FF900895A0
:100BB0000F931F93DF93CF93CDB7DEB728970FB670
:100BC000F894DEBF0FBECDBF8091F301813019F0E4
:100BD000893051F516C08091F201813A29F58E01D4
:100BE0000F5F1F4FC80170DD8091E800877F809301
:100BF000E800C80168E070E09FD08091E8008B7742
:100C000011C08091F201813279F48091E800877FF0
:100C10008093E800CE01019667E070E0F1D080910A
:100C2000E8008E778093E80028960FB6F894DEBF30
:100C30000FBECDBFCF91DF911F910F91089582E03C
:100C400060EC42E325D281E061EC42E321C284B74B
:100C5000877F84BF88E10FB6F8948093600010927C
:100C600060000FBE80E090E020E80FB6F89420937B
:100C70006100809361000FBECFC287E690E0909341
:100C8000CD008093CC0086E08093CA001092C8000B
:100C900088E18093C900539A5A9A80E090E013D576
:100CA00078948091C90080688093C900CCDBCFDF45
:100CB00078942ADFD5D4FDCFDA019330B1F09430A7
:100CC00028F4913041F0923079F50AC0913211F157
:100CD000923251F524C0EEEEF0E022E130E028C07F
:100CE000E0E0F1E029E230E023C0813049F08130DA
:100CF00018F08230C9F40AC0E9E2F1E0849103C03F
:100D0000EDE2F1E08491282F30E012C0EBE4F1E055
:100D10008491F9CFE2E1F1E029E030E009C0E8E9AF
:100D2000F0E026E530E004C0E0E0F0E020E030E074
:100D3000ED93FC93C90108959C014091F8015091F5
:100D4000F9014617570718F4F90190E03DC0611505
:100D5000710511F0AB01F8CF8091E8008E77809398
:100D6000E80040E050E0F0CF8091F101882309F4E1
:100D700041C0853009F440C08091E80083FD3EC049
:100D80008091E80082FD30C08091E80080FF1CC0A7
:100D90008091F200282F30E007C081918093F1000C
:100DA000415050402F5F3F4F4115510519F02034FD
:100DB000310598F390E02034310509F491E08091F9
:100DC000E8008E778093E8004115510569F6992374
:100DD00059F60AC08091F101882361F0853061F0F5
:100DE0008091E80083FD0AC08091E80082FFF2CF85
:100DF00080E0089582E0089583E0089581E00895F9
:100E00009C016115710529F48091E8008B7780932E
:100E1000E800F90120C08091F101882361F185305B
:100E200061F18091E80083FF02C081E00895809124
:100E3000E80082FFF0CF06C08091F10081936150FD
:100E4000704021F08091F2008823B1F78091E80092
:100E50008B778093E80061157105E9F606C08091F3
:100E6000F101882341F0853041F08091E80080FF56
:100E7000F6CF80E0089582E0089583E008959C0114
:100E80004091F8015091F9014617570718F4F901FC
:100E900090E03EC06115710511F0AB01F8CF809173
:100EA000E8008E778093E80040E050E0F0CF80913A
:100EB000F101882309F442C0853009F441C08091D2
:100EC000E80083FD3FC08091E80082FD31C0809141
:100ED000E80080FF1DC08091F200282F30E008C09C
:100EE00084918093F1003196415050402F5F3F4FE5
:100EF0004115510519F02034310590F390E020346C
:100F0000310509F491E08091E8008E778093E80044
:100F10004115510561F6992351F60AC08091F101FE
:100F2000882361F0853061F08091E80083FD0AC07C
:100F30008091E80082FFF2CF80E0089582E008957A
:100F400083E0089581E00895BF92CF92DF92EF92FF
:100F5000FF920F931F93CF93DF93182F092F7B01DD
:100F60006A01EFD0B82E8823B1F5812F902F9C0114
:100F7000E901C114D10439F0F60180819181E81AA8
:100F8000F90AC80FD91F00E010E022C08091E800E4
:100F900085FD16C08091E8008B778093E80060D3D0
:100FA000C114D10449F0F60180819181800F911F15
:100FB0009183808385E010C0C4D0882349F00CC0A1
:100FC0008091F10089930894E108F1080F5F1F4FA9
:100FD000E114F104D9F68B2DDF91CF911F910F9180
:100FE000FF90EF90DF90CF90BF900895BF92CF9287
:100FF000DF92EF92FF920F931F93CF93DF93182FFF
:10100000092F7B016A019DD0B82E8823B1F5812F6D
:10101000902F9C01E901C114D10439F0F6018081BF
:101020009181E81AF90AC80FD91F00E010E022C028
:101030008091E80085FD16C08091E8008E7780934E
:10104000E8000ED3C114D10449F0F60180819181EA
:10105000800F911F9183808385E010C072D0882318
:1010600049F00CC089918093F1000894E108F108DF
:101070000F5F1F4FE114F104D9F68B2DDF91CF9153
:101080001F910F91FF90EF90DF90CF90BF90089548
:10109000382F282F2EC0822F8F708093E9002317BE
:1010A00021F4762F942F50E006C07091EC009091BF
:1010B000ED005091F00091FF1BC08091EB008E7FFE
:1010C0008093EB008091ED008D7F8093ED00809107
:1010D000EB0081608093EB007093EC009093ED0047
:1010E0005093F0008091EE0087FD02C080E00895EB
:1010F0002F5F253080F23F703093E90081E0089542
:101100008091F20188239CF404C08091F10188232E
:10111000B9F08091E80082FFF8CF8091E8008B77EA
:101120008093E80008958091F101882349F080912F
:10113000E80080FFF8CF8091E8008E778093E80088
:1011400008954091E4005091E50024E68091EC0080
:1011500080FF24C08091E80080FD1EC08091F101D5
:10116000882311F482E00895853011F483E0089516
:101170008091EB0085FF02C081E008958091E4003A
:101180009091E5008417950709F3222311F484E078
:1011900008952150AC01DACF80E008958091E800F5
:1011A00082FFDCCFF9CF41D043D08091D8008F7738
:1011B0008093D8008091D80080688093D800809177
:1011C000D8008F7D8093D80084E089BD86E089BDFA
:1011D00009B400FEFDCF1092F1011092ED011092C2
:1011E000EF011092EE0180E060E042E351DF809178
:1011F000E1008E7F8093E1008091E2008160809326
:10120000E2008091E20088608093E2008091E0003B
:101210008E7F8093E0000895E3E6F0E080818E7F8A
:10122000808381E08093F001BECF1092E2000895A8
:101230001092E10008951F920F920FB60F921124A1
:101240002F933F934F935F936F937F938F939F93CE
:10125000AF93BF93EF93FF938091E10082FF0AC0A9
:101260008091E20082FF06C08091E1008B7F809335
:10127000E100F5D18091E10080FF17C08091E2008C
:1012800080FF13C08091E2008E7F8093E200809106
:10129000E20080618093E2008091D80080628093B8
:1012A000D80019BC1092F101DCD88091E10084FFD4
:1012B0002FC08091E20084FF2BC084E089BD86E0CE
:1012C00089BD09B400FEFDCF8091D8008F7D809349
:1012D000D8008091E1008F7E8093E1008091E20050
:1012E0008F7E8093E2008091E20081608093E20033
:1012F0008091ED01882311F084E007C08091E30024
:1013000087FD02C081E001C083E08093F101A8D88D
:101310008091E10083FF22C08091E20083FF1EC024
:101320008091E100877F8093E10082E08093F1016A
:101330001092ED018091E1008E7F8093E100809119
:10134000E2008E7F8093E2008091E20080618093D2
:10135000E20080E060E042E39BDE81D1FF91EF910B
:10136000BF91AF919F918F917F916F915F914F91BD
:101370003F912F910F900FBE0F901F9018951F93C4
:10138000DF93CF93CDB7DEB7AC970FB6F894DEBF3F
:101390000FBECDBFE2EFF1E08091F100819321E03B
:1013A000EA3FF207C9F704DC8091E80083FF3FC100
:1013B0008091F2013091F301353009F48DC036305F
:1013C00040F43130E1F1313070F0333009F02FC1A9
:1013D00036C0383009F4FDC0393009F40CC136305C
:1013E00009F025C19CC0803821F0823809F01FC166
:1013F00008C09091EE018091EF018823B1F09260D6
:1014000014C08091F6018F70853008F010C1809370
:10141000E9008091EB0090E025E0969587952A956C
:10142000E1F7982F91701092E9008091E800877F92
:101430008093E8009093F1001092F100D5C08823CA
:1014400019F0823009F0F3C090E08F71907000972E
:1014500021F0029709F0EBC00CC08091F4018130BB
:1014600009F0E5C01092EF01333081F58093EF0170
:101470002DC08091F401882349F52091F6012F7049
:10148000822F8150843008F0D2C02093E9008091EF
:10149000EB0080FF1BC0333021F48091EB008062B1
:1014A00013C08091EB0080618093EB0081E090E0BD
:1014B00002C0880F991F2A95E2F78093EA001092E4
:1014C000EA008091EB0088608093EB001092E900C5
:1014D0008091E800877F8BC0882309F0A8C0109115
:1014E000F4011F778091E3008078812B8093E300E3
:1014F0008091E800877F8093E80002DE8091E80019
:1015000080FFFCCF8091E30080688093E30011238B
:1015100011F482E001C083E08093F10188C080581B
:10152000823008F084C08091F4019091F50123E0AD
:101530008C3D920709F033C083E08C838AE28B8371
:101540007FB7F894DE0115966EE040E050E011E2BE
:10155000E62FF0E010935700849140FF03C082957E
:101560008F706F5F8F70282F30E08A3018F0C901BC
:10157000C79602C0C901C0968D939D934F5F5F4F80
:101580004431510529F77FBF8091E800877F809320
:10159000E800CE0103966AE270E0CEDB14C06091F1
:1015A000F6017091F701AE014F5F5F4F85DBBC0123
:1015B000009709F43CC08091E800877F8093E800A1
:1015C00089819A815CDC8091E8008B778093E800C8
:1015D0002EC0803861F58091E800877F8093E80015
:1015E0008091ED018093F1008091E8008E778093E7
:1015F000E80086DD1CC08823D1F49091F40192307C
:10160000B0F48091E800877F8093E8009093ED012B
:1016100077DD8091ED01882331F48091E30087FD2F
:1016200002C081E001C084E08093F10108DB809179
:10163000E80083FF0AC08091E800877F8093E8007C
:101640008091EB0080628093EB00AC960FB6F8942B
:10165000DEBF0FBECDBFCF91DF911F9108950895DA
:101660001F938091F101882371F01091E90080911E
:10167000EC001092E9008091E80083FF01C07FDE5A
:101680001F701093E9001F910895982F8091C80052
:1016900085FFFCCF9093CE0080E090E0089580918C
:1016A000C80087FD03C02EEF3FEF0BC08091C8003C
:1016B00087FD03C02FEF3FEF04C08091CE00282F9D
:1016C00030E0C9010895FC01009759F48AEF91E0D8
:1016D000909309028093080290930B0280930A0270
:1016E000FC018EE0DF011D928A95E9F783E0838398
:1016F00085E49BE0918780878FE49BE093878287D6
:1017000008955527002480FF02C0060E571F660F5C
:10171000771F6115710521F096958795009799F7C8
:10172000952F802D0895FB01DC0102C005900D92DC
:1017300041505040D8F70895FB01DC014150504022
:1017400030F08D910190801919F40020B9F7881BB1
:10175000990B0895CF93DF93EC014B8140FF1AC0A2
:1017600046FF0AC04F7B4B838E819F8101969F83EA
:101770008E838A81282F2BC042FF13C0E881F98114
:101780008081282F332727FD30952115310529F435
:1017900040624B832FEF3FEF1BC03196F983E88304
:1017A00011C0EA85FB85CE0109959C0197FF0AC00F
:1017B0009B812F5F3F4F11F080E201C080E1892BB8
:1017C0008B83E8CF8E819F8101969F838E8330E04B
:1017D000C901DF91CF91089560910A0270910B02C7
:1017E0009EC2AEE0B0E0E6EFFBE0F2C285E08C83A3
:1017F0008B899C899A8389839E01295E3F4FCE0104
:1018000001966D897E89A90176D12E96E2E0FCC20F
:10181000FC0120FD08C023FD05C022FF02C0738328
:101820006283518340830895EF92FF920F931F9339
:1018300044FF02C033E011C046FF02C034E00DC0D7
:10184000DB01FC01AA0FBB1FEE1FFF1F1094D1F795
:101850006A0F7B1F8E1F9F1F31E0660F771F881F47
:10186000991F3150D1F77B018C01E20EF11C011D53
:10187000111DA8019701B701CA011F910F91FF9097
:10188000EF9008950F931F93CF93DF938C01C801BE
:1018900061DFEC0197FD06C02FD2892BC1F7CE0185
:1018A000B80169D2CE01DF91CF911F910F910895B8
:1018B000A0E0B0E0EDE5FCE083C2EC01C62E5A01E9
:1018C000122F48DFAC018B3219F08D3249F41068C9
:1018D000CA9409F466C0CE013DDFAC0197FD61C03A
:1018E0006DEFD62ED1228D2D8073F1F44033E1F4CB
:1018F000CA9409F442C0CE012DDFAC0197FD3DC072
:1019000082E0D82A483711F0483551F480E4D82ACB
:10191000CA9499F1CE011EDFAC0199232CF42DC09D
:10192000D6FC02C080E1D82AEE24FF248701242FB0
:101930002053283080F0D4FC09C02A3060F0D6FE55
:1019400005C02F7D822F8151863020F0CA01BE0153
:1019500012D210C02750C801B7014D2D65DF7B01A1
:101960008C0182E0D82ACA9459F0CE01F3DEAC0192
:1019700097FFDDCFD1FC04C014C0EE24FF24870103
:10198000D7FE08C010950095F094E094E11CF11C7E
:10199000011D111DC501B801A7012D2D39DF81E001
:1019A00001C080E0CDB7DEB7EAE026C2A0E2B0E039
:1019B000EBEDFCE001C26C01A62E8A017901FE016B
:1019C000319680E2DF011D928A95E9F770E030E000
:1019D00060E040E050E04F01A1E0B0E0F60183811B
:1019E000F70183FD259183FF21917F01222309F4D3
:1019F0007CC02E3519F44115510569F1872F90E00F
:101A00008417950744F42D3551F12D3221F43323F9
:101A100029F431E021C0332309F4622F322F832FC0
:101A2000869586958695F401E80FF11D832F8770C2
:101A30003D0102C0660C771C8A95E2F720812629B9
:101A40002083361711F430E007C0361710F43F5FDB
:101A5000E6CF3150E4CF71E04F5F5F4FBFCF33230C
:101A600019F08E8180628E83772359F0FE013196C2
:101A70009E012F5D3F4F808180958193E217F30790
:101A8000D1F7BB24B3944E010894811C911CC6016C
:101A900061DEAC0197FD21C0869586958695F4019F
:101AA000E80FF11D808190E09A012770307002C02C
:101AB000959587952A95E2F780FD04C0CA01B60185
:101AC0005AD10BC00115110519F0D8014D938D01A4
:101AD000AA94BB24AA20D9F602C0BB2031F4011578
:101AE000110529F0F801108202C0EE24FF24C7017D
:101AF000A096EEE07DC1A0E0B0E0E0E8FDE05CC1D2
:101B00005C016B013A01FC01178216828824DCC05B
:101B1000812F90E0F1D0892B19F0C501B3DED4C03C
:101B2000153249F4F601F3FC6591F3FE61916F0102
:101B3000653259F415E2C5010DDE97FDD1C01817C5
:101B400009F4C2C0B50117D1D0C06A3219F0162FFE
:101B500000E006C0F3FC1591F3FE11916F0101E066
:101B600099240EC00260692D70E080E090E040E2B0
:101B70005BDE962EF601F3FC1591F3FE11916F01D9
:101B8000212F20532A3070F301FD03C099249A9429
:101B900003C0992009F4A9C0183621F01C3699F425
:101BA000F6010BC0F601F3FC6591F3FE6191683616
:101BB00019F06F01162F07C008600460F3FC15913F
:101BC000F3FE11916F01112309F48FC08FEF93E0A1
:101BD000612F70E099D0892B09F487C0802F00FF16
:101BE00003C0EE24FF2407C0F301E080F18022E06F
:101BF00030E0620E731E1E3649F4F50146815781AE
:101C000060E070E0C701202F03DE5EC0133689F468
:101C100081FD02C099249394C5019CDD97FD60C0AD
:101C2000E114F10419F0F70181937F019A94A1F76F
:101C300049C01B3551F4C501692DA7019601B6DED7
:101C40006C01009709F03EC038C0C5011BDE97FD4E
:101C500047C01F3641F1103728F4143611F11936F8
:101C600021F524C0133719F01537F9F41AC0C5014E
:101C700071DDEC0197FD0FC03FD0892B21F0CE0123
:101C8000B50179D008C0E114F10419F0F701C1934E
:101C90007F019A9461F7E114F104A1F0F701108239
:101CA00011C0006203C0006101C00064C501692D5C
:101CB000A701202FFDDD882329F4F501838180739E
:101CC00079F413C000FF8394F501F380F601F3FC6F
:101CD0001591F3FE11916F01112309F019CF05C081
:101CE000882019F42FEF3FEF02C0282D30E0C90102
:101CF000CDB7DEB7EEE07CC0911157C0803219F04D
:101D000089508550D0F70895FC010590061621F002
:101D10000020D9F7C00108953197CF0108950F939E
:101D20001F93CF93DF938C01EB018B8181FF1BC04D
:101D300082FF0DC02E813F818C819D81281739073C
:101D400064F4E881F9810193F983E88306C0E885AA
:101D5000F985802F0995892B31F48E819F81019619
:101D60009F838E8302C00FEF1FEFC801DF91CF91D9
:101D70001F910F9108959C01FB01838180FF11C089
:101D800086FD0FC09FEF2F3F390759F022838064F3
:101D90008F7D83838681978101979783868330E047
:101DA00002C02FEF3FEFC9010895992788270895B2
:101DB0002F923F924F925F926F927F928F929F925B
:101DC000AF92BF92CF92DF92EF92FF920F931F9349
:101DD000CF93DF93CDB7DEB7CA1BDB0B0FB6F894FA
:101DE000DEBF0FBECDBF09942A88398848885F843A
:101DF0006E847D848C849B84AA84B984C884DF80AB
:101E0000EE80FD800C811B81AA81B981CE0FD11D8E
:101E10000FB6F894DEBF0FBECDBFED010895F89464
:021E2000FFCFF2
:101E2200257300656E64002568782025686878202F
:101E320025686878202568687820256868782025D4
:101E4200686878006D6173685F61006175746F5FC7
:101E52006C656167756500696E665F7761747400B1
:101E620073796E6300756E73796E63007069636B6C
:101E7200757062657272790024012B01370140018D
:101E820045014C01000000000000000000000000BD
:101E92000000000000000000000000000000000040
:101EA2000000000000000000000000000000000030
:101EB2000000000000000000030007001100020003
:0A1EC20002000200160048005E0056
:00000001FF
